{
  "_format": "hh-sol-artifact-1",
  "contractName": "Marketplace",
  "sourceName": "contracts/Marketplace.sol",
  "abi": [
    {
      "inputs": [
        {
          "internalType": "uint256",
          "name": "_feePercentage",
          "type": "uint256"
        }
      ],
      "stateMutability": "nonpayable",
      "type": "constructor"
    },
    {
      "anonymous": false,
      "inputs": [
        {
          "indexed": false,
          "internalType": "uint256",
          "name": "listingId",
          "type": "uint256"
        },
        {
          "indexed": true,
          "internalType": "address",
          "name": "nft",
          "type": "address"
        },
        {
          "indexed": false,
          "internalType": "uint256",
          "name": "tokenId",
          "type": "uint256"
        },
        {
          "indexed": false,
          "internalType": "uint256",
          "name": "rent",
          "type": "uint256"
        },
        {
          "indexed": true,
          "internalType": "address",
          "name": "owner",
          "type": "address"
        }
      ],
      "name": "listed",
      "type": "event"
    },
    {
      "anonymous": false,
      "inputs": [
        {
          "indexed": false,
          "internalType": "uint256",
          "name": "listingId",
          "type": "uint256"
        },
        {
          "indexed": true,
          "internalType": "address",
          "name": "nft",
          "type": "address"
        },
        {
          "indexed": false,
          "internalType": "uint256",
          "name": "tokenId",
          "type": "uint256"
        },
        {
          "indexed": false,
          "internalType": "uint256",
          "name": "rent",
          "type": "uint256"
        },
        {
          "indexed": true,
          "internalType": "address",
          "name": "owner",
          "type": "address"
        },
        {
          "indexed": true,
          "internalType": "address",
          "name": "tenant",
          "type": "address"
        },
        {
          "indexed": false,
          "internalType": "bool",
          "name": "occupied",
          "type": "bool"
        },
        {
          "indexed": false,
          "internalType": "uint256",
          "name": "start",
          "type": "uint256"
        },
        {
          "indexed": false,
          "internalType": "uint256",
          "name": "end",
          "type": "uint256"
        }
      ],
      "name": "occupied",
      "type": "event"
    },
    {
      "inputs": [
        {
          "internalType": "uint256",
          "name": "_listingId",
          "type": "uint256"
        },
        {
          "internalType": "uint256",
          "name": "_start",
          "type": "uint256"
        },
        {
          "internalType": "uint256",
          "name": "_end",
          "type": "uint256"
        }
      ],
      "name": "escrow",
      "outputs": [],
      "stateMutability": "payable",
      "type": "function"
    },
    {
      "inputs": [],
      "name": "feePercentage",
      "outputs": [
        {
          "internalType": "uint256",
          "name": "",
          "type": "uint256"
        }
      ],
      "stateMutability": "view",
      "type": "function"
    },
    {
      "inputs": [
        {
          "internalType": "uint256",
          "name": "_listingId",
          "type": "uint256"
        }
      ],
      "name": "getTotalPrice",
      "outputs": [
        {
          "internalType": "uint256",
          "name": "",
          "type": "uint256"
        }
      ],
      "stateMutability": "view",
      "type": "function"
    },
    {
      "inputs": [
        {
          "internalType": "contract IERC721",
          "name": "_nft",
          "type": "address"
        },
        {
          "internalType": "uint256",
          "name": "_tokenId",
          "type": "uint256"
        },
        {
          "internalType": "uint256",
          "name": "_rent",
          "type": "uint256"
        }
      ],
      "name": "listProperty",
      "outputs": [],
      "stateMutability": "nonpayable",
      "type": "function"
    },
    {
      "inputs": [
        {
          "internalType": "uint256",
          "name": "",
          "type": "uint256"
        }
      ],
      "name": "listings",
      "outputs": [
        {
          "internalType": "uint256",
          "name": "listingId",
          "type": "uint256"
        },
        {
          "internalType": "contract IERC721",
          "name": "nft",
          "type": "address"
        },
        {
          "internalType": "uint256",
          "name": "tokenId",
          "type": "uint256"
        },
        {
          "internalType": "uint256",
          "name": "rent",
          "type": "uint256"
        },
        {
          "internalType": "address payable",
          "name": "owner",
          "type": "address"
        },
        {
          "internalType": "bool",
          "name": "occupied",
          "type": "bool"
        },
        {
          "internalType": "uint256",
          "name": "start",
          "type": "uint256"
        },
        {
          "internalType": "uint256",
          "name": "end",
          "type": "uint256"
        }
      ],
      "stateMutability": "view",
      "type": "function"
    },
    {
      "inputs": [],
      "name": "marketplaceAccount",
      "outputs": [
        {
          "internalType": "address payable",
          "name": "",
          "type": "address"
        }
      ],
      "stateMutability": "view",
      "type": "function"
    },
    {
      "inputs": [],
      "name": "totalListings",
      "outputs": [
        {
          "internalType": "uint256",
          "name": "",
          "type": "uint256"
        }
      ],
      "stateMutability": "view",
      "type": "function"
    }
  ],
  "bytecode": "0x60c06040523480156200001157600080fd5b50604051620014ae380380620014ae8339818101604052810190620000379190620000c2565b60016000819055508060a081815250503373ffffffffffffffffffffffffffffffffffffffff1660808173ffffffffffffffffffffffffffffffffffffffff168152505050620000f4565b600080fd5b6000819050919050565b6200009c8162000087565b8114620000a857600080fd5b50565b600081519050620000bc8162000091565b92915050565b600060208284031215620000db57620000da62000082565b5b6000620000eb84828501620000ab565b91505092915050565b60805160a0516113866200012860003960008181610617015261064501526000818161034601526105f301526113866000f3fe6080604052600436106100705760003560e01c8063c78b616c1161004e578063c78b616c146100e7578063ca7dd37514610112578063d56c46cc1461014f578063de74e57b1461017857610070565b8063433df4aa146100755780638db5f75a14610091578063a001ecdd146100bc575b600080fd5b61008f600480360381019061008a9190610b02565b6101bc565b005b34801561009d57600080fd5b506100a66105f1565b6040516100b39190610b96565b60405180910390f35b3480156100c857600080fd5b506100d1610615565b6040516100de9190610bc0565b60405180910390f35b3480156100f357600080fd5b506100fc610639565b6040516101099190610bc0565b60405180910390f35b34801561011e57600080fd5b5061013960048036038101906101349190610bdb565b61063f565b6040516101469190610bc0565b60405180910390f35b34801561015b57600080fd5b5061017660048036038101906101719190610c58565b6106a2565b005b34801561018457600080fd5b5061019f600480360381019061019a9190610bdb565b6109d8565b6040516101b3989796959493929190610d25565b60405180910390f35b6101c4610a6d565b60006101cf8461063f565b905060006002600086815260200190815260200160002090508134101561022b576040517f08c379a000000000000000000000000000000000000000000000000000000000815260040161022290610e00565b60405180910390fd5b600115158160040160149054906101000a900460ff1615151415610284576040517f08c379a000000000000000000000000000000000000000000000000000000000815260040161027b90610e6c565b60405180910390fd5b60008511801561029657506001548511155b6102d5576040517f08c379a00000000000000000000000000000000000000000000000000000000081526004016102cc90610ed8565b60405180910390fd5b8060040160009054906101000a900473ffffffffffffffffffffffffffffffffffffffff1673ffffffffffffffffffffffffffffffffffffffff166108fc82600301549081150290604051600060405180830381858888f19350505050158015610343573d6000803e3d6000fd5b507f000000000000000000000000000000000000000000000000000000000000000073ffffffffffffffffffffffffffffffffffffffff166108fc82600301548461038e9190610f27565b9081150290604051600060405180830381858888f193505050501580156103b9573d6000803e3d6000fd5b5060018160040160146101000a81548160ff0219169083151502179055508381600501819055508281600601819055506002600086815260200190815260200160002060010160009054906101000a900473ffffffffffffffffffffffffffffffffffffffff1673ffffffffffffffffffffffffffffffffffffffff166323b872dd8260040160009054906101000a900473ffffffffffffffffffffffffffffffffffffffff1630600260008a8152602001908152602001600020600201546040518463ffffffff1660e01b815260040161049693929190610f8b565b600060405180830381600087803b1580156104b057600080fd5b505af11580156104c4573d6000803e3d6000fd5b50505050308160040160006101000a81548173ffffffffffffffffffffffffffffffffffffffff021916908373ffffffffffffffffffffffffffffffffffffffff1602179055503373ffffffffffffffffffffffffffffffffffffffff168160040160009054906101000a900473ffffffffffffffffffffffffffffffffffffffff1673ffffffffffffffffffffffffffffffffffffffff168260010160009054906101000a900473ffffffffffffffffffffffffffffffffffffffff1673ffffffffffffffffffffffffffffffffffffffff167f99d4f523bd1e8fc72cccfbebbeeed25568075ccbe97554f7dd4daa322ace6ce2888560020154866003015460018b8b6040516105da96959493929190610fc2565b60405180910390a450506105ec610abd565b505050565b7f000000000000000000000000000000000000000000000000000000000000000081565b7f000000000000000000000000000000000000000000000000000000000000000081565b60015481565b600060647f000000000000000000000000000000000000000000000000000000000000000060646106709190611023565b60026000858152602001908152602001600020600301546106919190611079565b61069b9190611102565b9050919050565b6106aa610a6d565b600081116106ed576040517f08c379a00000000000000000000000000000000000000000000000000000000081526004016106e49061117f565b60405180910390fd5b3373ffffffffffffffffffffffffffffffffffffffff168373ffffffffffffffffffffffffffffffffffffffff16636352211e846040518263ffffffff1660e01b815260040161073d9190610bc0565b60206040518083038186803b15801561075557600080fd5b505afa158015610769573d6000803e3d6000fd5b505050506040513d601f19601f8201168201806040525081019061078d91906111cb565b73ffffffffffffffffffffffffffffffffffffffff16146107e3576040517f08c379a00000000000000000000000000000000000000000000000000000000081526004016107da90611244565b60405180910390fd5b600160008154809291906107f690611264565b919050555060405180610100016040528060015481526020018473ffffffffffffffffffffffffffffffffffffffff1681526020018381526020018281526020013373ffffffffffffffffffffffffffffffffffffffff1681526020016000151581526020016000815260200160008152506002600060015481526020019081526020016000206000820151816000015560208201518160010160006101000a81548173ffffffffffffffffffffffffffffffffffffffff021916908373ffffffffffffffffffffffffffffffffffffffff160217905550604082015181600201556060820151816003015560808201518160040160006101000a81548173ffffffffffffffffffffffffffffffffffffffff021916908373ffffffffffffffffffffffffffffffffffffffff16021790555060a08201518160040160146101000a81548160ff02191690831515021790555060c0820151816005015560e082015181600601559050503373ffffffffffffffffffffffffffffffffffffffff168373ffffffffffffffffffffffffffffffffffffffff167fe8918c0bb3ad097d73642c4741b470855dda5db5e757be3f75cf970e7a3c28f460015485856040516109c3939291906112ad565b60405180910390a36109d3610abd565b505050565b60026020528060005260406000206000915090508060000154908060010160009054906101000a900473ffffffffffffffffffffffffffffffffffffffff16908060020154908060030154908060040160009054906101000a900473ffffffffffffffffffffffffffffffffffffffff16908060040160149054906101000a900460ff16908060050154908060060154905088565b60026000541415610ab3576040517f08c379a0000000000000000000000000000000000000000000000000000000008152600401610aaa90611330565b60405180910390fd5b6002600081905550565b6001600081905550565b600080fd5b6000819050919050565b610adf81610acc565b8114610aea57600080fd5b50565b600081359050610afc81610ad6565b92915050565b600080600060608486031215610b1b57610b1a610ac7565b5b6000610b2986828701610aed565b9350506020610b3a86828701610aed565b9250506040610b4b86828701610aed565b9150509250925092565b600073ffffffffffffffffffffffffffffffffffffffff82169050919050565b6000610b8082610b55565b9050919050565b610b9081610b75565b82525050565b6000602082019050610bab6000830184610b87565b92915050565b610bba81610acc565b82525050565b6000602082019050610bd56000830184610bb1565b92915050565b600060208284031215610bf157610bf0610ac7565b5b6000610bff84828501610aed565b91505092915050565b6000610c1382610b55565b9050919050565b6000610c2582610c08565b9050919050565b610c3581610c1a565b8114610c4057600080fd5b50565b600081359050610c5281610c2c565b92915050565b600080600060608486031215610c7157610c70610ac7565b5b6000610c7f86828701610c43565b9350506020610c9086828701610aed565b9250506040610ca186828701610aed565b9150509250925092565b6000819050919050565b6000610cd0610ccb610cc684610b55565b610cab565b610b55565b9050919050565b6000610ce282610cb5565b9050919050565b6000610cf482610cd7565b9050919050565b610d0481610ce9565b82525050565b60008115159050919050565b610d1f81610d0a565b82525050565b600061010082019050610d3b600083018b610bb1565b610d48602083018a610cfb565b610d556040830189610bb1565b610d626060830188610bb1565b610d6f6080830187610b87565b610d7c60a0830186610d16565b610d8960c0830185610bb1565b610d9660e0830184610bb1565b9998505050505050505050565b600082825260208201905092915050565b7f4e6f7420656e6f7567682062616c616e63650000000000000000000000000000600082015250565b6000610dea601283610da3565b9150610df582610db4565b602082019050919050565b60006020820190508181036000830152610e1981610ddd565b9050919050565b7f416c7265616479204f6363757069656400000000000000000000000000000000600082015250565b6000610e56601083610da3565b9150610e6182610e20565b602082019050919050565b60006020820190508181036000830152610e8581610e49565b9050919050565b7f4c697374696e6720646f65736e27742065786973740000000000000000000000600082015250565b6000610ec2601583610da3565b9150610ecd82610e8c565b602082019050919050565b60006020820190508181036000830152610ef181610eb5565b9050919050565b7f4e487b7100000000000000000000000000000000000000000000000000000000600052601160045260246000fd5b6000610f3282610acc565b9150610f3d83610acc565b925082821015610f5057610f4f610ef8565b5b828203905092915050565b6000610f6682610cd7565b9050919050565b610f7681610f5b565b82525050565b610f8581610c08565b82525050565b6000606082019050610fa06000830186610f6d565b610fad6020830185610f7c565b610fba6040830184610bb1565b949350505050565b600060c082019050610fd76000830189610bb1565b610fe46020830188610bb1565b610ff16040830187610bb1565b610ffe6060830186610d16565b61100b6080830185610bb1565b61101860a0830184610bb1565b979650505050505050565b600061102e82610acc565b915061103983610acc565b9250827fffffffffffffffffffffffffffffffffffffffffffffffffffffffffffffffff0382111561106e5761106d610ef8565b5b828201905092915050565b600061108482610acc565b915061108f83610acc565b9250817fffffffffffffffffffffffffffffffffffffffffffffffffffffffffffffffff04831182151516156110c8576110c7610ef8565b5b828202905092915050565b7f4e487b7100000000000000000000000000000000000000000000000000000000600052601260045260246000fd5b600061110d82610acc565b915061111883610acc565b925082611128576111276110d3565b5b828204905092915050565b7f52656e74206d7573742062652067726561746572207468616e207a65726f0000600082015250565b6000611169601e83610da3565b915061117482611133565b602082019050919050565b600060208201905081810360008301526111988161115c565b9050919050565b6111a881610c08565b81146111b357600080fd5b50565b6000815190506111c58161119f565b92915050565b6000602082840312156111e1576111e0610ac7565b5b60006111ef848285016111b6565b91505092915050565b7f596f7520617265206e6f7420746865206f776e6572206f66204e465400000000600082015250565b600061122e601c83610da3565b9150611239826111f8565b602082019050919050565b6000602082019050818103600083015261125d81611221565b9050919050565b600061126f82610acc565b91507fffffffffffffffffffffffffffffffffffffffffffffffffffffffffffffffff8214156112a2576112a1610ef8565b5b600182019050919050565b60006060820190506112c26000830186610bb1565b6112cf6020830185610bb1565b6112dc6040830184610bb1565b949350505050565b7f5265656e7472616e637947756172643a207265656e7472616e742063616c6c00600082015250565b600061131a601f83610da3565b9150611325826112e4565b602082019050919050565b600060208201905081810360008301526113498161130d565b905091905056fea2646970667358221220e080a05401d65a5cf0aa1e87e4861275b3bc55a562b012d06248a1ee34183c6c64736f6c63430008090033",
  "linkReferences": {},
  "deployedLinkReferences": {}
}